:020000040800F2
:1000000000000220A53D00088D3C00088F3C000840
:10001000913C0008933C0008953C0008000000005B
:10002000000000000000000000000000B11C0008FB
:10003000973C000800000000411D0008A51D0008B5
:10004000F53D0008F53D0008F53D0008F53D0008C8
:10005000F53D0008F53D0008F53D0008F53D0008B8
:10006000F53D0008F53D0008F53D0008F53D0008A8
:10007000F53D0008F53D0008F53D0008F53D000898
:10008000F53D0008F53D0008F53D0008F53D000888
:10009000F53D0008F53D0008F53D0008F53D000878
:1000A000F53D0008F53D0008F53D0008F53D000868
:1000B000F53D0008F53D0008F53D0008F53D000858
:1000C000F53D0008F53D0008F53D0008F53D000848
:1000D000F53D0008F53D0008993C0008A53C0008E6
:1000E000F53D0008F53D0008F53D0008F53D000828
:1000F000F53D0008B13C0008F53D0008F53D00085D
:10010000F53D0008F53D0008F53D0008F53D000807
:10011000F53D0008F53D0008F53D0008F53D0008F7
:10012000F53D0008F53D0008F53D0008F53D0008E7
:10013000F53D0008F53D0008F53D0008F53D0008D7
:10014000F53D0008F53D0008F53D0008F53D0008C7
:10015000F53D0008F53D0008F53D0008F53D0008B7
:10016000F53D0008F53D0008F53D0008F53D0008A7
:10017000F53D0008F53D0008F53D000800000000D1
:08018000F53D0008F53D000803
:1001900010B5054C237833B9044B13B10448AFF3C1
:1001A00000800123237010BD7400002000000000B7
:1001B000C04D000808B5034B1BB103490348AFF31A
:1001C000008008BD0000000078000020C04D00083D
:1001D00001F0FF01102A2BDB10F0070F08D010F8F8
:1001E000013B013A8B422DD010F0070F42B3F6D1FC
:1001F000F0B441EA012141EA014122F007047FF015
:1002000000070023F0E80256083C85EA010586EA6B
:10021000010685FA47F5A3FA87F586FA47F6A5FAA7
:1002200087F68EB9EED1F0BC01F0FF0102F00702B3
:1002300032B110F8013B013A83EA010313B1F8D15E
:100240000020704701387047002D06BF354603383F
:10025000073815F0010F07D1013015F4807F02BF78
:10026000013015F4C03F0130F0BC0138704700BFC9
:1002700053B94AB9002908BF00281CBF4FF0FF310D
:100280004FF0FF3000F07AB9ADF1080C6DE904CE03
:1002900000F006F8DDF804E0DDE9022304B0704761
:1002A0002DE9F0478C460D460446089E002B51D19F
:1002B0008A4217466DD9B2FA82FEBEF1000F0BD00A
:1002C000CEF1200C01FA0EF520FA0CFC02FA0EF722
:1002D0004CEA050C00FA0EF44FEA174A250CBCFB59
:1002E000FAF81FFA87F90AFB18CC45EA0C4508FB17
:1002F00009F3AB420AD9ED1908F1FF3280F02381EE
:10030000AB4240F22081A8F102083D44ED1AA4B2AC
:10031000B5FBFAF00AFB105544EA054400FB09F965
:10032000A14509D9E41900F1FF3380F00A81A14504
:1003300040F2078102383C44A4EB090440EA08403B
:100340000021002E61D024FA0EF400233460736083
:10035000BDE8F0878B4207D9002E54D0002186E8F3
:1003600021000846BDE8F087B3FA83F1002940F088
:100370008E80AB4202D3824200F2FA80841A65EB8F
:1003800003050120AC46002E3FD086E81010BDE8E2
:10039000F08712B90127B7FBF2F7B7FA87FEBEF173
:1003A000000F34D1EB1B3A0C1FFA87FC0121B3FB81
:1003B000F2F8250C02FB183345EA03450CFB08F361
:1003C000AB4207D9ED1908F1FF3002D2AB4200F27F
:1003D000D1808046ED1AA3B2B5FBF2F002FB1055B6
:1003E00043EA05440CFB00FCA44507D9E41900F1DD
:1003F000FF3302D2A44500F2B8801846A4EB0C04E7
:1004000040EA08409DE731463046BDE8F087CEF12E
:10041000200405FA0EF307FA0EF720FA04F83A0C56
:1004200025FA04F448EA0308B4FBF2F14FEA184550
:1004300002FB11441FFA87FC45EA044501FB0CF35B
:10044000AB4200FA0EF409D9ED1901F1FF3080F04A
:100450008A80AB4240F2878002393D44EB1A1FFA92
:1004600088F5B3FBF2F002FB103345EA034500FBCD
:100470000CF3AB4207D9ED1900F1FF386FD2AB4254
:100480006DD902383D44EB1A40EA01418FE7C1F1D2
:10049000200722FA07F88B4005FA01F448EA030323
:1004A00020FA07FE4FEA134CFD404EEA040EB5FB5E
:1004B000FCF94FEA1E440CFB19551FFA83F844EA75
:1004C000054509FB08F4AC4202FA01F200FA01FA10
:1004D00008D9ED1809F1FF3043D2AC4241D9A9F156
:1004E00002091D442D1B1FFA8EFEB5FBFCF00CFB10
:1004F00010554EEA054400FB08F8A04507D9E4185A
:1005000000F1FF3529D2A04527D902381C4440EA22
:100510000940A4EB0804A0FB02894C45C6464D46A1
:1005200015D312D056B1BAEB0E0364EB050404FAEE
:1005300007F7CB401F43CC40376074600021BDE813
:10054000F0871846F8E69046E0E6C245EAD2B8EBF6
:10055000020E69EB03050138E4E72846D7E7404679
:1005600091E78146BEE7014678E702383C4445E71B
:10057000084608E7A8F102083D442BE7704700BF92
:1005800008B50B4B1A6842F400721A601A6842F4FC
:1005900080621A601A6842F480721A60032000F0C8
:1005A0001BF8002003F034FB03F09CFA002008BD88
:1005B000003C0240034A044B11681B780B44136053
:1005C000704700BF645B002000000020014B1868EA
:1005D000704700BF645B0020C31E042B10B50446A7
:1005E00003D99221094803F07BFA094AD36823F41E
:1005F000E0631B041B0C43F0BF63240243F400338D
:1006000004F4E0641C43D46010BD00BFD84D000862
:1006100000ED00E00F2A70B504460E46154603D9DA
:10062000AA211A4803F05CFA0F2E03D9AB21174810
:1006300003F056FA164BD968C1F30221C1F1070342
:100640000A1D042B28BF04230120062A8CBF03396E
:10065000002100FA03F2013A8840324001388A4012
:100660000540002C42EA05024FEA0212ADBF04F138
:10067000604404F00F04074B04F56144B5BFD2B2E7
:10068000D2B21A5584F8002370BD00BFD84D0008BF
:1006900000ED00E014ED00E0002803DABE2106487A
:1006A00003F01EBA4209012300F01F0003FA00F014
:1006B000024B43F822007047D84D000800E100E0EB
:1006C00090F83530022B03D080234365012070471A
:1006D0000268052380F83530136823F001031360A6
:1006E000002070479C4B98422DE9F74F04460D4679
:1006F00023D003F5806398421FD003F580639842AE
:100700001BD003F58063984217D003F580639842AD
:1007100013D003F5806398420FD003F580639842AD
:100720000BD003F58063984207D003F580639842AD
:1007300003D0B321894803F0D3F92B689AB212B1E0
:100740001B0C1B041BB1B421844803F0C9F96B686E
:10075000032B17D9A3F11102012A13D9804923F4DD
:1007600000128A420ED001F580118B420AD0A1F509
:1007700070218A4206D07B4A934203D0B521774844
:1007800003F0AEF9AB68022B03D9B621734803F02E
:10079000A7F9DFF8D881002601232A6803FA06F7B3
:1007A00007EA02094F4540F0C4806A6822F010024F
:1007B000022A18D12A690D2A05D90F2A03D0C72188
:1007C000664803F08DF9F10804EB810106F0070299
:1007D00090000B6A0F22824023EA020E2A698240AF
:1007E00042EA0E020A626A6820684FEA460B4FF03E
:1007F000030A0AFA0BFA02F003016FEA0A0A22F06E
:10080000100200EA0A0001FA0BF1013A0143012A41
:10081000216017D8EA68032A03D9DA214F4803F088
:100820005FF9A168EA686B680AEA010102FA0BF253
:100830000A43A2606268C3F3001322EA0702B340CE
:1008400013436360E36868680AEA030AAB6803FA63
:100850000BF343EA0A03E360C3006AD5424A00236C
:100860000193516C41F480415164526C26F00301B4
:1008700001F1804102F4804201F59C31019206F0C1
:10088000030E019AD1F808C04FEA8E0E0F2202FA29
:100890000EF22CEA020C304A94421FD003F180433E
:1008A00003F501339C424BD003F580639C4249D051
:1008B00003F580639C4247D003F580639C4245D09A
:1008C00003F580639C4243D003F580639C4241D092
:1008D00003F580639C4214BF0823072303FA0EF339
:1008E00043EA0C038B60D8F800206FEA0901C703C4
:1008F00054BF0A4049EA0202C8F80020D8F8042090
:10090000830354BF0A4049EA0202C8F80420D8F819
:100910000820C70254BF0A4049EA0202C8F808206A
:10092000D8F80C30820254BF0B4049EA0303C8F8E0
:100930000C300136102E7FF42FAF03B0BDE8F08FDE
:100940000123CBE70223C9E70323C7E70423C5E755
:100950000523C3E70623C1E700000240134E000849
:10096000000011100000221000380240003C01403D
:1009700038B505460C4621B94FF4BF71044803F061
:10098000AFF82B691C4214BF0120002038BD00BF06
:10099000134E00082DE9F341044618B9012002B0B6
:1009A000BDE8F08103680F2B03D9E821A24803F0CA
:1009B00097F82368D80718D4236899076BD423685D
:1009C000190700F1BE8023685A0700F1E480A3698B
:1009D000022B04D940F2CF11974803F081F8A269A5
:1009E000002A40F051810020D9E7636833F4803257
:1009F00006D0B3F5A02F03D0ED218F4803F070F897
:100A00008E4B9A6802F00C02042A07D09A6802F012
:100A10000C02082A0AD15B685A0207D5874B1B686B
:100A20009B03C9D56368002BC6D1B7E76368834DC4
:100A3000B3F5803F11D12B6843F480332B60FFF76F
:100A4000C5FD7E4D06462B689F03B5D4FFF7BEFD5E
:100A5000801B6428F7D90320A1E7B3F5A02F04D1A8
:100A60002B6843F480232B60E5E72A6822F4803268
:100A70002A602A6822F480222A60002BDFD1FFF747
:100A8000A5FD06462B68980396D5FFF79FFD801BB2
:100A90006428F7D9DFE7E368012B04D940F21F117E
:100AA000654803F01DF823691F2B04D94FF490719A
:100AB000614803F015F8614B9A6812F00C0F07D0EB
:100AC0009A6802F00C02082A12D15B6859020FD40E
:100AD0005A4B1A68920703D5E268012A7FF45EAF89
:100AE0001A68216922F0F80242EAC1021A6066E738
:100AF000E268534BB2B101221A60FFF767FD4F4D18
:100B000006462B689F0707D52B68226923F0F80358
:100B100043EAC2032B6052E7FFF758FD801B02280F
:100B2000EFD998E71A60FFF751FD444D06462B6850
:100B300098077FF544AFFFF749FD801B0228F6D9DF
:100B400089E76369012B04D94FF4B0713A4802F088
:100B5000C7FF62693B4B7AB101221A60FFF736FD8D
:100B6000364D06466B6F9B073FF52DAFFFF72EFD09
:100B7000801B0228F6D96EE71A60FFF727FD2F4D7C
:100B800006466B6F9F077FF51EAFFFF71FFD801BAB
:100B90000228F6D95FE7A368012B06D9052B04D0FC
:100BA0004FF4C671244802F09BFF244B1A6C12F0DC
:100BB000805228D101921A6C42F080521A641B6C48
:100BC00003F080530193019B01261F4D2B68D8052C
:100BD0001BD5A368194D012B27D12B6F43F00103BF
:100BE0002B67FFF7F3FC154D074641F288382B6F52
:100BF0009A0743D5002E3FF4EAAE104A136C23F057
:100C000080531364E3E60026DFE72B6843F4807328
:100C10002B60FFF7DBFC07462B68D905D9D4FFF71B
:100C2000D5FCC01B0228F7D915E7052B0ED12B6F79
:100C300043F004032B67D0E74C4E00080038024015
:100C400000004742800E4742007000402A6F22F0A9
:100C500001022A672A6F22F004022A67002BC0D102
:100C6000FFF7B4FC41F2883807462B6F9B07C1D5CC
:100C7000FFF7ACFCC01B4045F7D9ECE6FFF7A6FC3C
:100C8000C01B4045B3D9E6E63B4EB36803F00C0306
:100C9000082B3FF483AE022A384D5ED1E36933F46A
:100CA000800304D04FF4EC71354802F019FF236A39
:100CB0003F2B04D940F2D911314802F011FF636A89
:100CC000323BB3F5BF7F04D94FF4ED712C4802F0ED
:100CD00007FFA26A082A04D84FF4AA73D340D807A2
:100CE00004D440F2DB11264802F0FAFEE36A023B2C
:100CF0000D2B04D94FF4EE71214802F0F1FE0023D0
:100D00002B60FFF763FC1C4E0746336899011ED425
:100D1000226AE3691343626A43EA8213E26A43EA9E
:100D20000263A26A144C5208013A43EA0243736018
:100D300001232B60FFF74AFC054623689A013FF523
:100D400052AEFFF743FC401B0228F6D983E6FFF7BB
:100D50003DFCC01B0228D8D97DE600232B60FFF79D
:100D600035FC044633689B017FF53DAEFFF72EFC52
:100D7000001B0228F6D96EE60038024060004742A8
:100D80004C4E0008134908B58B6803F00C03042B84
:100D900003D0082B03D0104808BD104808BD4A688E
:100DA0004B68496813F4800314BF0C480A48C1F328
:100DB000881118BF002302F03F02A1FB0001FFF7DA
:100DC00057FA044B5B68C3F3014301335B00B0FB8C
:100DD000F3F008BD003802400024F40000127A004D
:100DE0002DE9F0410D46044610B90120BDE8F0811F
:100DF0000368013B0E2B04D94FF410716D4802F0CB
:100E00006FFE072D04D940F241216A4802F068FEC6
:100E1000694B1A6802F00F0295423DD82268960786
:100E200042D42368D9076CD4634B1A6802F00F02CE
:100E30009542C0F09C8023685A0700F1A180236886
:100E40001B0718D5236933F480520CD023F40062B9
:100E5000B2F5A05F07D0B3F5C05F04D04FF42C719A
:100E6000544802F03DFE554A2169936823F46043DB
:100E700043EAC1039360FFF785FF504B504A9B68DC
:100E8000C3F30313D35CD8404E4B1860002002F02C
:100E9000BFFE0020BDE8F081EAB21A701B6803F0C3
:100EA0000F039D42A1D1B9E7444B12F0040F1EBFBE
:100EB000996841F4E0519960100742BF9A6842F482
:100EC00060429A60A36833F0800212D023F02002BF
:100ED000902A0ED023F04002A02A0AD023F010025C
:100EE000C02A06D0F02B04D04FF41971314802F01B
:100EF000F7FD324AA168936823F0F0030B43936037
:100F00008FE76368032B04D940F26B21294802F074
:100F1000E7FD6268294B012A1FD11B6813F4003FCB
:100F20003FF463AF254EB36823F003031343B3606C
:100F3000FFF74CFB41F288380746B368626803F05C
:100F40000C03B3EB820F3FF46FAFFFF73FFBC01B07
:100F50004045F2D90320BDE8F081911E01291B68AC
:100F600002D813F0007FDBE713F0020FD8E7EAB2F4
:100F70001A701B6803F00F039D427FF436AF5AE7E7
:100F8000E36833F480520CD023F40062B2F5A05F22
:100F900007D0B3F5C05F04D040F2A921054802F0A4
:100FA0009FFD064AE168936823F4E0530B43936086
:100FB00045E700BF4C4E0008003C024000380240AC
:100FC000FD5000080C000020044B054A9B68C3F349
:100FD0008223D35C034A1068D8407047003802402F
:100FE0000D5100080C000020044B054A9B68C3F318
:100FF0004233D35C034A1068D8407047003802403F
:101000000D5100080C0000200F2303600B4B9A6861
:1010100002F0030242609A6802F0F00282609A686D
:1010200002F4E052C2609B68DB0803F4E053036102
:10103000034B1B6803F00F030B607047003802403E
:10104000003C0240704700000368264A934210B5F6
:10105000044637D0B3F1804F34D0A2F57C4293429E
:1010600030D002F5806293422CD002F58062934228
:1010700028D002F58062934224D002F58062934228
:1010800020D002F5704293421CD002F57052934278
:1010900018D002F58062934214D002F58062934228
:1010A00010D0A2F5983293420CD002F580629342A0
:1010B00008D002F58062934204D040F2B1110A4890
:1010C00002F00EFD2368DA6842F00102DA609A68E5
:1010D00002F00702062A1EBF1A6842F001021A60D7
:1010E000002010BD00000140844E0008704770478A
:1010F0007047704703681A69910710B504460ED50A
:10110000DA6892070BD56FF002021A619B6901221F
:101110009B07027777D0FFF7EAFF00232377236846
:101120001A69500710D5DA6851070DD56FF004021F
:101130001A619B69022213F4407F2277204668D00F
:10114000FFF7D5FF0023237723681A6912070FD50D
:10115000DA6810070CD56FF008021A61DB69042207
:101160009907227720465AD0FFF7C1FF0023237743
:1011700023681A69D20610D5DA68D0060DD56FF04B
:1011800010021A61DB69082213F4407F227720469F
:101190004BD0FFF7ACFF0023237723681A69D107F0
:1011A00008D5DA68D20705D56FF001021A6120462A
:1011B00002F08CFC23681A69100608D5DA6811065B
:1011C00005D56FF080021A61204600F01CF92368F3
:1011D0001A69520608D5DA68500605D56FF0400244
:1011E0001A612046FFF785FF23681A69910622D508
:1011F000DA6892061FD56FF0200220461A61BDE81A
:10120000104000F0FFB8FFF771FF2046FFF770FFB6
:1012100083E7FFF76BFF2046FFF76AFF92E7FFF7D0
:1012200065FF2046FFF764FFA0E7FFF75FFF20465A
:10123000FFF75EFFAFE710BD304A0368904212D05F
:10124000B0F1804F0FD0A2F57C4290420BD002F556
:101250008062904207D002F58062904203D002F58E
:101260007842904219D14A6823F070031343234A0D
:10127000904229D0B0F1804F26D0A2F57C42904216
:1012800022D002F5806290421ED002F58062904228
:101290001AD002F57842904216D0194A904213D0E3
:1012A00002F5806290420FD002F5806290420BD02E
:1012B000A2F59832904207D002F58062904203D0A6
:1012C00002F58062904203D1CA6823F4407313434D
:1012D0004A6923F08003134303608B68C3620B6881
:1012E0008362064B984203D003F58063984201D194
:1012F0000B69036301234361704700BF0000014095
:101300000040014010B50446002875D003683B4AF0
:10131000934237D0B3F1804F34D0A2F57C42934250
:1013200030D002F5806293422CD002F58062934265
:1013300028D002F58062934224D002F58062934265
:1013400020D002F5704293421CD002F570529342B5
:1013500018D002F58062934214D002F58062934265
:1013600010D0A2F5983293420CD002F580629342DD
:1013700008D002F58062934204D04FF48571204872
:1013800002F0AEFBA36833F010020AD023F0400253
:10139000202A06D0402B04D040F20B11184802F04E
:1013A0009FFB236933F4807207D0B3F5007F04D02C
:1013B0004FF48671124802F093FBA36933F0800367
:1013C00004D040F20D110E4802F08AFB94F83D3033
:1013D00003F0FF0223B984F83C202046FFF732FED9
:1013E000022384F83D302068211DFFF725FF0123EB
:1013F00084F83D30002010BD012010BD00000140E8
:10140000844E0008704770470368DA6822F49072CF
:10141000DA605A6922F001025A61202380F83A30DA
:101420007047000042689E4B9A422DE9F0470446FF
:1014300004D940F6E5319B4802F052FBE36833F4EF
:10144000005304D040F6E631964802F049FB236988
:1014500033F4806207D0B3F5C06F04D040F6E731B3
:10146000904802F03DFB63694FF6F372134200D1DE
:1014700023B940F6E8318B4802F032FB2668E26877
:1014800033692069E16923F4405313433361A3684E
:10149000F2680343606922F41642034322F00C020F
:1014A0000B431343F3607369A26923F4407313433E
:1014B000B1F5004F73617C4B7CD19E4203D003F5A4
:1014C00080639E4244D1FFF78FFD192505FB00F391
:1014D00060684FF064094000B3FBF0F3B3FBF9F32D
:1014E0004FEA0318FFF780FD636868435B00B0FBB9
:1014F000F3F7FFF779FD636868435B00B0FBF3F334
:10150000B3FBF9F309FB1373DB003233B3FBF9F3DD
:101510005B0003F4F877FFF767FD626868435200E9
:10152000B0FBF2FAFFF760FD636868435B00B0FB55
:10153000F3F3B3FBF9F309FB13A3DB003233B3FB83
:10154000F9F303F0070343443B44B360BDE8F0877D
:10155000FFF73AFD192505FB00F360684FF06409B9
:101560004000B3FBF0F3B3FBF9F34FEA0318FFF7C6
:101570002BFD636868435B00B0FBF3F7FFF724FDC6
:10158000636868435B00B0FBF3F3B3FBF9F309FB5B
:101590001373DB003233B3FBF9F35B0003F4F8772A
:1015A000FFF712FD626868435200B0FBF2FAFFF7E2
:1015B0000BFDB9E79E4202D03C4B9E4240D1FFF763
:1015C00013FD676819254FF0640905FB00F3BF00A0
:1015D000B3FBF7F3B3FBF9F31F01FFF705FD6368F6
:1015E00068439B00B0FBF3F8FFF7FEFC63686843B9
:1015F0009B00B0FBF3F3B3FBF9F309FB13831B016F
:101600003233B3FBF9F303F0F008FFF7EDFC626847
:1016100068439200B0FBF2FAFFF7E6FC63686843A8
:101620009B00B0FBF3F3B3FBF9F309FB13A31B011E
:101630003233B3FBF9F303F00F0343EA080383E704
:10164000FFF7C2FC676819254FF0640905FB00F33A
:10165000BF00B3FBF7F3B3FBF9F31F01FFF7B4FCD3
:10166000636868439B00B0FBF3F8FFF7ADFC636869
:1016700068439B00B0FBF3F3B3FBF9F309FB13835F
:101680001B013233B3FBF9F303F0F008FFF79CFCC6
:10169000626868439200B0FBF2FAFFF795FCBDE781
:1016A000A037A000BC4E000800100140001401400B
:1016B00010B50446002874D0816903683A4A0029AD
:1016C00057D0934210D0A2F54C4293420CD002F571
:1016D0008062934208D002F54C42934204D040F21B
:1016E0004911324802F0FCF9A36933F4407304D085
:1016F0004FF4A5712D4802F0F3F9A36833F4805339
:1017000004D04FF4A871294802F0EAF9E36933F4F0
:10171000004304D040F25111244802F0E1F994F85A
:10172000393003F0FF0223B984F83820204602F054
:10173000FBF92268242384F83930D36823F400535A
:10174000D3602046FFF76EFE23681A6922F49042A8
:101750001A615A6922F02A025A61DA6842F4005288
:10176000DA6000202023E06384F8393084F83A30CE
:1017700010BD9342C1D00E4A9342BED002F58062A2
:101780009342BAD002F580629342B6D002F58062ED
:101790009342B2D002F544429342AED04FF4A771C7
:1017A000A8E7012010BD00BF00100140BC4E00089A
:1017B0000044004090F83930202B18D1A9B1A2B1D3
:1017C00090F83830012B12D0C28401628284002349
:1017D0000168C363212280F83920CA6880F8383054
:1017E00042F08002CA60184670470120704702200C
:1017F000704790F83A30202B20D1E9B1E2B190F84F
:101800003830012B1AD0C285828500232222C3637F
:1018100080F83A2002688162D16880F8383041F45B
:101820008071D160516941F001015161D16841F08D
:101830002001D16018467047012070470220704790
:1018400090F83A30222B10B536D1836801690268CE
:10185000B3F5805F836A23D15268E9B9C2F3080205
:1018600023F8022B8362C48D013CA4B2C4858CB9D9
:101870000368DA6822F02002DA60DA6822F4807203
:10188000DA605A6922F001025A61202380F83A3066
:1018900002F06EF8002010BDD2B223F8012BE1E770
:1018A00021B9591C526881621A70DCE75268591CD0
:1018B000816202F07F02F7E7022010BD03681A6818
:1018C000D96870B5160704465D6907D196065AD5E2
:1018D0008D0658D5BDE87040FFF7B2BF15F0010581
:1018E00002D111F4907F4ED0D30705D5CE0542BF6B
:1018F000E36B43F00103E363500704D51DB1E36BD1
:1019000043F00203E363930704D51DB1E36B43F097
:101910000403E363160704D51DB1E36B43F008032A
:10192000E363E36B002B66D0950604D5880602D5E9
:101930002046FFF785FF23685D69E26B11072046AB
:1019400002D415F040051AD0FFF75EFD23685A69EE
:10195000520610D55A69606B22F040025A6150B1AC
:10196000254B0365FEF7ACFE002844D0606BBDE854
:101970007040036D1847204602F06EF870BD02F00B
:101980006BF8E56370BD160627D50D0625D594F8CE
:101990003920212A2FD1A268B2F5805F226A17D19F
:1019A0001188C1F308015960216979B902322262B4
:1019B000E28C013A92B2E284EAB9DA6822F080025B
:1019C000DA60DA6842F04002DA6070BD0132EEE7B8
:1019D000511C216212785A60EAE750060BD54A067C
:1019E00009D5DA6822F04002DA60202384F8393021
:1019F000204601F089FF70BDFD19000808B5806B15
:101A00000023C385C38402F027F808BDEFF30583E4
:101A100013B16FF005007047EFF31083002BF8D17E
:101A2000074B1868022806D1EFF31183002BF0D181
:101A30004FF0FF3070470028FAD101221A6070473A
:101A4000E408002010B5EFF3058313B16FF0050033
:101A500010BDEFF31084002CF8D1094B1A68022A4C
:101A600006D1EFF31183002BF0D14FF0FF3010BD02
:101A7000012AFAD102221A6001F048F8204610BD6E
:101A8000E4080020F0B587B0144600220B4605920A
:101A9000EFF3058272BBEFF310825ABB294A12683A
:101AA000022A02D1EFF3118222BB18B300228DF873
:101AB0001320002C3DD0216809B90DF11301A5694F
:101AC000002D08BF18256A1E372A2F4637D86268AE
:101AD000D20734D4666986B1B208D4F808E0D4F8E5
:101AE0000CC0BEF1000F0BD0BCF1530F02D924691A
:101AF00004B1B6B9059807B0F0BD4FF40072ECE739
:101B0000BCF1000FF6D12469002CF3D105AC01948F
:101B1000009792B200F0CDFF01281CBF002305936F
:101B2000E8E7CDF808E00194009500F08BFF059000
:101B3000E0E718274FF400720DF11301E6E70020EB
:101B4000D9E700BFE4080020034B0360034B0B60A0
:101B50004FF400731360704790080020900000203D
:101B6000034B0360034B0B604FF4806313607047BB
:101B7000E8180020E808002000F1080343604FF057
:101B8000FF32C3600361002382600360704700235B
:101B90000361704743684B609A688A609A68516035
:101BA0009960036808610133036070470A68531C39
:101BB00030B50AD103695A684A6091608B605960F8
:101BC000036808610133036030BD00F108035C68FD
:101BD0002568AA42EFD32346F9E741688268036982
:101BE0008A60826851605968884208BF5A60002242
:101BF00002611A68013A1A601868704782B00023BF
:101C000001930D4B1B68013308D04FF0500383F351
:101C10001188BFF36F8FBFF34F8FFEE74FF0500374
:101C200083F31188BFF36F8FBFF34F8F019B002B9E
:101C3000FCD002B0704700BF0400002008480068D4
:101C4000006880F308884FF0000080F3148862B6C3
:101C500061B6BFF34F8FBFF36F8F00DF00BF00008F
:101C600008ED00E0DFF80C00016841F4700101604C
:101C70007047000088ED00E04FF0807340F8043CAE
:101C8000074B40F80C3C21F001016FF0020340F8D3
:101C9000081C40F8202C40F8243C4438704700BF12
:101CA000FD1B000800000000000000000000000014
:101CB000074B19680868B0E8F04F80F30988BFF354
:101CC0006F8F4FF0000080F311887047AFF30080F2
:101CD0005C5500204FF0500383F31188BFF36F8FE2
:101CE000BFF34F8F0A4A13680133012B13600DD1E4
:101CF000084B1B6813F0FF0F08D04FF0500383F31D
:101D00001188BFF36F8FBFF34F8FFEE7704700BF9F
:101D10000400002004ED00E0084A136843B94FF0C6
:101D2000500383F31188BFF36F8FBFF34F8FFEE72C
:101D3000013B13600BB983F3118870470400002046
:101D4000EFF30980BFF36F8F154B1A681EF0100F69
:101D500008BF20ED108A20E9F04F10602DE909003E
:101D60004FF0500080F31188BFF34F8FBFF36F8F98
:101D700001F046F84FF0000080F3118809BC1968A3
:101D80000868B0E8F04F1EF0100F08BFB0EC108AE2
:101D900080F30988BFF36F8F704700BFAFF30080F7
:101DA0005C55002008B54FF0500383F31188BFF352
:101DB0006F8FBFF34F8F00F0FBFE18B1034B4FF056
:101DC00080521A60002383F3118808BD04ED00E0FF
:101DD000084A0949002313600B60084B4FF47A71DD
:101DE0001B68B3FBF1F30649013B0B60072313604B
:101DF000704700BF10E000E018E000E00C00002099
:101E000014E000E0394B3A4A13B51968914208D101
:101E10004FF0500383F31188BFF36F8FBFF34F8FE1
:101E2000FEE71A68334B9A4208D14FF0500383F310
:101E30001188BFF36F8FBFF34F8FFEE72E4B1A78D9
:101E4000D2B20192FF221A701B782C4ADBB28DF8B5
:101E500003309DF8033003F050031370284B072222
:101E60001A6000219DF80300000602F1FF340DD432
:101E700001B11A601A68032A11D04FF0500383F39E
:101E80001188BFF36F8FBFF34F8FFEE79DF80320DC
:101E90005200D2B28DF8032001212246E2E712025D
:101EA00002F4E0621A60019B134ADBB21370154B17
:101EB0001A6842F470021A601A6842F070421A609E
:101EC000FFF786FF104B00241C60FFF7CBFE0F4A84
:101ED000136843F040431360FFF7B0FE00F090FF3B
:101EE000FFF78CFE204602B010BD00BF00ED00E001
:101EF00071C20F4170C20F4100E400E03C190020A4
:101F00004019002020ED00E00400002034EF00E044
:101F1000EFF305830F2B0ED9104A9B5C104A127801
:101F20009A4208D94FF0500383F31188BFF36F8FA3
:101F3000BFF34F8FFEE70B4B0B4A1B68126803F48D
:101F4000E063934208D94FF0500383F31188BFF345
:101F50006F8FBFF34F8FFEE7704700BFF0E300E0E5
:101F60003C1900200CED00E04019002010B50F4B8B
:101F70001A68824218D35C681919884201BF416807
:101F8000184609195960446801198A4207D108495D
:101F900009688A421FBF5168126809194160984256
:101FA000026018BF186010BD1346E1E754550020C9
:101FB000441900202DE9F041044600F0EBFD3E49B4
:101FC0003E4D0B680BBB3E4A56071FBFD01D20F08D
:101FD000070002F570531B1A14BF02464FF47053EA
:101FE0001344083B23F00703364E0B60002070605B
:101FF000326058601860981A1360334B5060186054
:10200000324B18604FF000432B602F68274216D1E7
:10201000002C41D004F1080358071CBF23F007032C
:10202000083363B1294A1668B342904607D8254A57
:1020300015686868834204D809688D4207D1002476
:102040002AE02C68002CF7D02A462546F1E72968BB
:1020500014681160C21A102A0FD9E818410708D075
:102060004FF0500383F31188BFF36F8FBFF34F8F8F
:10207000FEE742606B60FFF779FF13496B68086801
:10208000F61A1F4386424FF00003C8F8006038BFBD
:102090000E6008346F602B6000F01AFE630708D0F2
:1020A0004FF0500383F31188BFF36F8FBFF34F8F4F
:1020B000FEE72046BDE8F081441900204855002085
:1020C0004819002054550020505500204C55002040
:1020D00010B5044670B3184A50F8043C1268134215
:1020E00008D14FF0500383F31188BFF36F8FBFF314
:1020F0004F8FFEE750F8081C41B14FF0500383F3B7
:102100001188BFF36F8FBFF34F8FFEE723EA0203FF
:1021100040F8043C00F03EFD084A54F8043C1168C5
:10212000A4F108000B441360FFF720FFBDE8104046
:1021300000F0CEBD10BD00BF485500204C5500201A
:1021400010B50446FFF7C6FDA46BFFF7E5FDB4FA32
:1021500084F0400910BD70B51546026C866B0446CC
:1021600042B905689DB9406800F05CFF65600136C2
:10217000A66370BD6DB9806801F068FEA368226C2B
:1021800013446268A360934201D32368A3600020D4
:10219000EDE7C06801F05AFE236CE26821685B42FB
:1021A0001A448A42E2603EBF62689B18E360022DD7
:1021B000EDD10EB1013EEAE73046D8E7034610B450
:1021C0001A6C084662B1D9685C681144A142D960B2
:1021D00024BF1968D960D9685DF8044B01F036BE98
:1021E0005DF8044B704770B50446FFF773FD94F833
:1021F000455004F124066DB2002D14DCFF2384F851
:102200004530FFF789FDFFF765FD94F8445004F170
:1022100010066DB2002D12DCFF2384F84430BDE8B7
:102220007040FFF779BD636A002BE7D0304600F0BD
:102230005BFE08B100F0E0FE013D6DB2DCE7236912
:10224000002BE9D0304600F04FFE08B100F0D4FE7C
:10225000013D6DB2DEE7000038B50D46044640B9D9
:102260004FF0500383F31188BFF36F8FBFF34F8F8D
:10227000FEE7FFF72FFD206CE36B2268A26043436B
:10228000D1181B1A13446160E3600021FF23A1638E
:1022900084F8443084F8453095B9236963B104F17A
:1022A000100000F021FE38B10A4B4FF080521A6046
:1022B000BFF34F8FBFF36F8FFFF72EFD012038BDA7
:1022C00004F11000FFF758FC04F12400FFF754FC60
:1022D000F2E700BF04ED00E013B51C4640B94FF033
:1022E000500383F31188BFF36F8FBFF34F8FFEE767
:1022F00043B94FF0500383F31188BFF36F8FBFF3DF
:102300004F8FFEE74AB1D9B94FF0500383F31188DC
:10231000BFF36F8FBFF34F8FFEE789B14FF05003CC
:1023200083F31188BFF36F8FBFF34F8FFEE74FF03A
:10233000500383F31188BFF36F8FBFF34F8FFEE716
:1023400048230193019B482BF1D10123002908BFA9
:102350002246E063216484F8463022601946204614
:10236000FFF77AFF204602B010BD70B50D46064655
:1023700040B94FF0500383F31188BFF36F8FBFF361
:102380004F8FFEE748434830FFF714FE044650B134
:10239000002380F8463045B92060E66325640121BA
:1023A0002046FFF759FF204670BD00F14803036047
:1023B000F3E700002DE9FF47894601921F460446D6
:1023C00040B94FF0500383F31188BFF36F8FBFF311
:1023D0004F8FFEE7002940F08880036C002B00F04F
:1023E00084804FF0500383F31188BFF36F8FBFF3E6
:1023F0004F8FFEE7019E002E00F082804FF05003C9
:1024000083F31188BFF36F8FBFF34F8FFEE7019DFA
:102410001DB9FFF781FC002058E016B902A800F0B2
:10242000A3FDFFF779FC00F0B5FBFFF753FC94F830
:102430004430FF2B08BF84F8448094F84530FF2BCC
:1024400008BF84F84580FFF767FC01A902A800F0E7
:1024500097FD002843D1FFF73DFCA66BE56BFFF726
:102460005BFCAE4235D1019904F1100000F004FD8F
:102470002046FFF7B8FE00F02BFC38B94FF0805330
:10248000CAF80030BFF34F8FBFF36F8F0126FFF7FD
:1024900021FCA26BE36B9A4201D3022FB7D13A46DB
:1024A00049462046FFF757FE636A1BB104F124003A
:1024B00000F01AFD38B1194B4FF080521A60BFF38B
:1024C0004F8FBFF36F8FFFF727FC012004B0BDE8EB
:1024D000F0872046FFF787FE00F0FAFBD6E720469C
:1024E000FFF781FE00F0F4FB95E7022F02D1E36BCA
:1024F000012B0AD100F086FD00283FF47BAF0026B7
:102500004FF00008DFF814A0C1E74FF0500383F349
:102510001188BFF36F8FBFF34F8FFEE704ED00E02C
:102520002DE9F843884691461F46044640B94FF0CE
:10253000500383F31188BFF36F8FBFF34F8FFEE714
:1025400009BB036CFBB14FF0500383F31188BFF359
:102550006F8FBFF34F8FFEE704F1240000F0C4FC3F
:10256000002834D0B9F1000F31D00120C9F80000A3
:1025700086F31188BDE8F88301356DB284F84550C3
:1025800025E00020F4E7022F02D1E36B012B20D1DC
:10259000FFF7BEFCEFF311864FF0500383F3118871
:1025A000BFF36F8FBFF34F8FA26BE36B9A4201D3E0
:1025B000022FE6D194F845503A466DB24146204686
:1025C000FFF7C9FD6B1CD7D1636A002BC4D1012072
:1025D000CEE74FF0500383F31188BFF36F8FBFF343
:1025E0004F8FFEE72DE9F04385B0884601920446FF
:1025F00040B94FF0500383F31188BFF36F8FBFF3DF
:102600004F8FFEE7002940F08680036C002B00F01E
:1026100082804FF0500383F31188BFF36F8FBFF3B5
:102620004F8FFEE7019E002E7AD04FF0500383F3C8
:102630001188BFF36F8FBFF34F8FFEE7019D1DB968
:10264000FFF76AFB002052E016B902A800F08CFCEC
:10265000FFF762FB00F09EFAFFF73CFB94F8443072
:10266000FF2B08BF84F8447094F84530FF2B08BF57
:1026700084F84570FFF750FB01A902A800F080FC28
:1026800000283DD12046FFF75BFD98B3019904F186
:10269000240000F0F1FB2046FFF7A5FD00F018FB39
:1026A00038B94FF08053C9F80030BFF34F8FBFF3F4
:1026B0006F8F0126FFF70EFBA56B002DBED04146A4
:1026C0002046013DFFF77AFDA563236963B104F15C
:1026D000100000F009FC38B1134B4FF080521A6023
:1026E000BFF34F8FBFF36F8FFFF716FB012005B0CD
:1026F000BDE8F0832046FFF776FD00F0E9FAD8E761
:102700002046FFF770FD00F0E3FA2046FFF718FDC2
:102710000028CED096E700F075FC002882D0002675
:102720000027DFF80490C5E704ED00E030B5074A64
:10273000002352F8335002EBC3041DB942F83310A2
:10274000606030BD0133082BF3D130BD685B0020E1
:1027500070B504460D461646FFF7BCFA94F84430AF
:10276000FF2B04BF002384F8443094F84530FF2B3E
:1027700004BF002384F84530FFF7CEFAA36B2BB9D2
:102780003246294604F1240000F090FB2046BDE8C3
:102790007040FFF728BD00002DE9F0410646FFF725
:1027A00099FA2D4B2D4C1A682D4F01321A6025686D
:1027B000002D46D126601B68012B1DD178191435D8
:1027C000FFF7DAF9B5F58C6FF8D1DFF8C080254D49
:1027D0004046FFF7D1F92846FFF7CEF92248FFF728
:1027E000CBF92248FFF7C8F92148FFF7C5F9214B7B
:1027F000C3F80080204B1D60204A1368013313602A
:102800001F4AF36A116814208B4200FB037006F123
:10281000040188BF1360FFF7BDF9FFF77DFA194B7C
:102820001B6863B12368DA6AF36A9A4207D2164BCF
:102830004FF080521A60BFF34F8FBFF36F8FBDE828
:10284000F081104B1B68002BD6D12368DA6AF36A3B
:102850009A4298BF2660CFE7C85900205C550020F7
:1028600068550020F4590020105A00203C5A0020DE
:10287000285A00206055002064550020D8590020B7
:10288000DC590020245A002004ED00E0E05900202B
:10289000064A13681968064B19B94FF0FF321A60DF
:1028A00070471268D268D2685268F8E76055002015
:1028B000085A00202DE9F0470A9CDDF82480266B99
:1028C00002F18042013A06EB82069A4681464B1E8F
:1028D00026F0070604F134020F31587802F8010B94
:1028E00013F8010F08B18B42F7D1089D372D28BF8F
:1028F00037250027E5626564201D84F84370A764CE
:10290000FFF745F9C5F1380504F11800FFF73FF965
:10291000E7642461A561646284F8507052464946B8
:102920003046FFF7A9F92060B8F1000F01D0C8F8D0
:102930000040BDE8F08710B590F8513004463BB92F
:10294000006BFFF7C5FB2046BDE81040FFF7C0BB9A
:10295000012BF9D0022B08D04FF0500383F31188DC
:10296000BFF36F8FBFF34F8FFEE710BD80B5DFF869
:102970005C80124F124C134D236863B9124B1B68D5
:10298000012BF8D94FF08053C8F80030BFF34F8FB8
:10299000BFF36F8FEEE7FFF79DF9FB68DE68301D30
:1029A000FFF71BF92B68013B2B602368013B236079
:1029B000FFF7B2F93046FFF7BEFFDDE73C5A0020D3
:1029C000CC590020C85900206855002004ED00E0D3
:1029D000F8B5164B164D1E680446286804300F469D
:1029E000FFF7FBF8631C2B4607D137B12968114864
:1029F0000431BDE8F840FFF7CDB834441A68A64268
:102A0000546007D90C4A10681968BDE8F8400431D1
:102A1000FFF7CCB8094A106819680431FFF7C6F807
:102A2000074B1A68944238BF1C60F8BD505A00200A
:102A30005C550020285A0020645500206055002075
:102A4000085A002070B586B00B9D0C9C45B94FF01C
:102A5000500383F31188BFF36F8FBFF34F8FFEE7EF
:102A600044B94FF0500383F31188BFF36F8FBFF366
:102A70004F8FFEE754260496049E542E08D04FF044
:102A8000500383F31188BFF36F8FBFF34F8FFEE7BF
:102A90002563022584F8515005AD01950A9D0294E5
:102AA0000095FFF707FF2046FFF776FE059806B072
:102AB00070BD2DE9F043074685B090008846164664
:102AC0009946FFF777FA0546E8B15420FFF772FA06
:102AD0000446A8B1002380F851300D9B0563019393
:102AE0000C9B0290009332464B4641463846FFF716
:102AF000E1FE2046FFF750FE012005B0BDE8F0835F
:102B00002846FFF7E5FA4FF0FF30F6E710B588B03A
:102B1000002407AA06A905A805940694FFF714F84F
:102B2000059B0293069B019300942346079A144940
:102B30001448FFF787FFA0B908B010BD4FF050034D
:102B400083F31188BFF36F8FBFF34F8F0E4B4FF09E
:102B5000FF321A600D4B18600D4B1C60FFF752F9E5
:102B6000EAE700F0F3FA0128E8D00130E4D14FF0B1
:102B7000500383F31188BFF36F8FBFF34F8FFEE7CE
:102B8000F54E00086D290008085A0020245A00203C
:102B9000505A0020024A136801331360704700BF87
:102BA000D4590020014B1868704700BF505A0020CC
:102BB0002DE9F84F3B4B1B68002B51D13A4B1C6859
:102BC00001341C60BCB9394B1A68126842B14FF02D
:102BD000500383F31188BFF36F8FBFF34F8FFEE76E
:102BE000334A1968106818601160324A136801335B
:102BF0001360FFF74DFE304D304F2B689C424FF075
:102C0000000B3CD3DFF8A480DFF8C090D8F8002098
:102C1000126862BB4FF0FF322A6030E006F1040A0E
:102C20005046FEF7DAFFB16A19B106F11800FEF757
:102C3000D4FFF06AD9F80010214B88424FF01402FB
:102C400088BFC9F80000514602FB0030FEF7A2FF22
:102C50003868F16AC26A914228BF4FF0010BD5E78C
:102C6000184A1368013313604FF0000B11E0D8F8D5
:102C70000020D268D66871688C42CFD229603A6849
:102C80000F4BD16A14224A439A58022A28BF4FF0A8
:102C9000010B0D4A1268002A18BF4FF0010B58466D
:102CA000BDE8F88FD4590020505A0020605500200C
:102CB000645500200C5A0020085A00205C55002062
:102CC00068550020D0590020545A0020DC590020BB
:102CD0002DE9F0412F4C236843B94FF0500383F3A3
:102CE0001188BFF36F8FBFF34F8FFEE7FEF7F2FF40
:102CF0002368013B236024682CB10024FFF70CF803
:102D00002046BDE8F081244B1B68002BF5D0234EF4
:102D1000234FDFF8A0803368E3B90CB1FFF7B8FDAB
:102D2000204D2C6844B1204E0127FFF741FF00B130
:102D30003760013CF9D12C601B4B1B68002BDCD0A9
:102D40001A4B4FF080521A60BFF34F8FBFF36F8F53
:102D50000124D3E7F368DC68251D04F11800FEF7B1
:102D60003CFF2846FEF739FFE36A3A681420934295
:102D700000FB0380294688BF3B60FEF70BFF0C4B2E
:102D8000E26A1B68DB6A9A4222BF074B01221A6083
:102D9000C1E700BFD4590020C8590020105A0020B4
:102DA000DC590020D0590020545A002004ED00E0E6
:102DB0005C5500206855002008B540B90E4B4FF017
:102DC00080521A60BFF34F8FBFF36F8F08BD0B4B5C
:102DD000196841B14FF0500383F31188BFF36F8F2F
:102DE000BFF34F8FFEE7FFF7D5FEFFF7F1FDFFF7CB
:102DF0006FFF0028E2D008BD04ED00E0D4590020A8
:102E0000184B1A68184BF0B512B101221A60F0BDC8
:102E1000164D1A60164A2B681427164607FB03F155
:102E2000501854588CB144680831646844600A44AE
:102E3000944204BF62684260142202FB036252683B
:102E4000D1680C4A11602B60F0BD43B94FF05003BC
:102E500083F31188BFF36F8FBFF34F8FFEE7013B02
:102E6000DCE700BFD4590020545A0020DC59002070
:102E7000685500205C55002010B50C4640B94FF055
:102E8000500383F31188BFF36F8FBFF34F8FFEE7BB
:102E9000054B19681831FEF789FE20460121BDE86F
:102EA0001040FFF795BD00BF5C55002038B50D46BA
:102EB000144640B94FF0500383F31188BFF36F8F6E
:102EC000BFF34F8FFEE7074B19681831FEF762FE1C
:102ED000002C21460CBF28464FF0FF30BDE838409B
:102EE000FFF776BD5C55002038B5C368DC6844B98F
:102EF0004FF0500383F31188BFF36F8FBFF34F8FF1
:102F0000FEE704F118052846FEF767FE104B1B6824
:102F1000DBB9251D2846FEF760FE0E4AE36A1168FC
:102F20008B4288BF13600C4A1420294600FB032003
:102F3000FEF730FE094BE26A1B68DB6A9A4283BFE8
:102F4000074B01201860002038BD29460548EFE7EF
:102F5000D4590020DC590020685500205C55002021
:102F6000545A0020105A0020034B1B680360034B87
:102F70001B684360704700BF0C5A0020505A002065
:102F800070B50C46054640B94FF0500383F31188E5
:102F9000BFF36F8FBFF34F8FFEE741B94FF0500380
:102FA00083F31188BFF36F8FBFF34F8FFEE7FEF7F8
:102FB00091FE0F4B69681A682368581C0ED00D48A3
:102FC0002E680068864201D08A420ED2521A9A4276
:102FD00009D29B1A23602846FFF7C6FF0024FEF79C
:102FE0009BFE204670BD002323600124F7E700BF4D
:102FF000505A00200C5A0020014B01221A607047E1
:10300000545A0020054B1B6833B1054B1B68002B3D
:103010000CBF02200020704701207047245A002076
:10302000D459002038B5044608B9002038BD1B4BE0
:103030001B68984208D04FF0500383F31188BFF308
:103040006F8FBFF34F8FFEE7836C43B94FF0500390
:1030500083F31188BFF36F8FBFF34F8FFEE7C16A11
:10306000426C013B91428364DFD0002BDDD1051D12
:103070002846FEF7B2FD636CE362C3F13802A26139
:10308000074A11688B4288BF1360064A142000FB70
:1030900003202946FEF77EFD012038BD5C55002047
:1030A000DC59002068550020F7B5114CFEF712FEE0
:1030B0002568BDB90F4F104E3846FEF75DFD30460E
:1030C000FEF75AFD0D4B0E4A1F600E4B0C211E6081
:1030D0000A2000950C4BFFF7FFF8206010B10B4958
:1030E000FFF724FB03B0BDE8F040FEF715BE00BFBC
:1030F0004C5B0020D85A0020EC5A0020585A00207F
:10310000605A00205C5A0020045B0020FA4E000840
:10311000914208B5416000610AD8D21A83699A4287
:103120000DD2084B011D1868FEF740FD002008BDB8
:103130009A4201D2994202D2011D034BF3E70120CA
:1031400008BD00BF5C5A0020585A002010B588B056
:10315000FFF7AAFF134B1B6843B94FF0500383F3EB
:103160001188BFF36F8FBFF34F8FFEE7002407AACC
:1031700006A905A805940694FEF7F2FC059B0293A8
:10318000069B019302230093079A074907482346A9
:10319000FFF758FC064B18600028DED0012008B06D
:1031A00010BD00BF4C5B0020FF4E000889320008B4
:1031B000505B002030B5154685B01A46034640B92D
:1031C0004FF0500383F31188BFF36F8FBFF34F8F1E
:1031D000FEE70D4C206880B105290191029503930B
:1031E0000DDCFFF70FFF0023022808BF089A2068B4
:1031F00018BF1A4601A9FFF7DDF805B030BD00235E
:1032000001A9FFF78DF9F8E74C5B00202DE9F341A8
:103210001B4D4FF000082B681A6832B9194A116823
:103220002960136002B0BDE8F081DB68DC681E68CD
:10323000271D3846FEF7D1FC636A20469847E369AC
:10324000012BE8D1A36933449E4206D26360246116
:1032500039462868FEF7AAFCDDE70023CDF8008098
:10326000324619462046FFF7A5FF0028D3D14FF07C
:10327000500383F31188BFF36F8FBFF34F8FFEE7C7
:10328000585A00205C5A00202DE9F04F6E4DDFF8AF
:10329000C88189B02F462B68D3F800B0BBF1000F6E
:1032A00043D0DB68D3F80090FFF774FCFFF77AFC9B
:1032B000664B1A68904282461E4638D20393FFF747
:1032C000A5FF039B0124C3F800A0002C40F08280DE
:1032D000BBF1000F63D0D1457AD8FFF7F9FC3B680A
:1032E000DB68D3F80CB00BF10400FEF776FCDBF8DA
:1032F0001C30012B1DD1DBF818104B4652464944B7
:103300005846FFF705FFA0B1009423464A462146E0
:103310005846FFF74FFF60B94FF0500383F3118811
:10332000BFF36F8FBFF34F8FFEE7D946BCE7002492
:10333000C9E7DBF8243058469847DFF81891D9F8E8
:103340000000002205A9FFF74DF90028A3D0059B36
:10335000002BF4DB079C636913B1201DFEF73DFCD5
:10336000FFF720FC33689842834601D2FFF74EFFF7
:10337000059AC6F800B0092AE1D80123934013F456
:10338000047A4ED113F0C70F27D19B06D7D594F8F6
:103390002830002BD3D12046FEF79AFECFE72C4BE6
:1033A0001B681A68B2FA82F252092A4BA9EB0A0189
:1033B0001868FFF7CDF9FFF78BFC0028BDD14FF05F
:1033C0008053C8F80030BFF34F8FBFF36F8FB4E75F
:1033D0002246EAE7FFF77CFCAFE7A169069B5A4665
:1033E00019442046FFF794FE0028A8D0636A2046BF
:1033F0009847E369012BA2D1A2690699CDF800A0F4
:103400000A44534651462046FFF7D4FE002896D181
:103410004FF0500383F31188BFF36F8FBFF34F8FCB
:10342000FEE70699A16141B94FF0500383F311887B
:10343000BFF36F8FBFF34F8FFEE75B465A46594489
:103440002046FFF765FE7AE7585A0020005B00200F
:103450005C5A00204C5B002004ED00E010B51946DA
:103460001446029AFFF7BEF8012804D1012C03D9B3
:10347000024800F087FD002010BD00BF074F000884
:1034800008B5FEF797F910B1024800F07BFD012066
:1034900008BD00BF2B4F00082DE9F04107460E483C
:1034A000DFF838800C46164600F0E4FC25462B1B5E
:1034B0009E420ADC0A2000F0F5FC324621463846DE
:1034C000FFF7DEFF0020BDE8F08115F8011B404644
:1034D00000F0D0FCEBE700BF1B4F0008254F0008B1
:1034E0002DE9F74302AD002405F8014D0746894652
:1034F0009046424629463846FFF774F80128E6B25E
:1035000004F1010403D0304603B0BDE8F0839DF818
:10351000073009F80630ECE72DE9F04F002287B0BC
:1035200001213220FEF721FF3E4F386010B93E489E
:1035300000F028FD3D4800F025FD3D4A002392465D
:10354000D9B2D1540133C82BFAD13A4D3A4C3B4948
:103550002868002301222370FEF74BF9A84610B11A
:10356000374800F00FFDDFF8F890002502213548BC
:10357000FDF7FEF9012831D1FA20FFF71DFC29469D
:10358000314800F077FC314800F0FCFC0023A9F83A
:1035900000300B232370237803FB0553C72B05DD75
:1035A000237803FB05533833DBB22370284B217893
:1035B00022781B780393322302933B680193CDF862
:1035C000009005FB01A1234BD8F80000FFF764FF32
:1035D0000135EDB20A20FFF7EFFBC7E700263223E3
:1035E00000932670019622781A4B11493868FFF72C
:1035F00035FF83460028EDD00146174800F03AFC1D
:10360000144A164B915D059218460136049300F05A
:1036100031FCB345049B059AF4DC0A2000F042FC1F
:10362000D8E700BFA85B00206E50000803500008D8
:10363000205F0020185F0020545B0020B45B002056
:1036400014500008000802402750000838500008B5
:1036500008000020BC5C00204A5000085A500008B6
:10366000565B00202DE9F84F002201213220FEF7A1
:103670007CFE204D286010B91F4800F083FC1F4ECF
:103680001F4800F07FFC01221E493068FEF7B1F8A8
:1036900010B11D4800F076FCDFF87480DFF87490FC
:1036A000DFF874A02868FA224146FFF719FF0746A1
:1036B000D8B10146484600F0DDFBDFF850B00024E9
:1036C00018F80410504600F0D5FB18F80430DBB2AF
:1036D0000BF804300134A742F2DC0A2000F0E2FBD0
:1036E000BAB20A493068FFF7CBFE0120FFF764FB4E
:1036F000D8E700BF1C5F002061500008B05B0020CD
:103700009A500008505E0020AC500008E85F00208E
:10371000845D0020BC5000085A50000830B595B0B8
:103720003022002108A800F09CFB0021142203A8ED
:1037300000F097FB00241C4B01941A6C42F080525D
:103740001A641B6C03F080530193019B174B029486
:103750001A6842F480421A601B6803F480430293A3
:10376000029B012308934FF4803309934FF48003A5
:103770000225A8220F9308A80423109311921393F3
:103780000E951295FDF706F90F2303934FF4A053FE
:10379000069305214FF4805303A8049505940793DD
:1037A000FDF71EFB15B030BD003802400070004030
:1037B00080B596B0FCF7E4FEFFF7B0FF14220021BD
:1037C0000DA800F04EFB00243F4B00941A6B3F4EB7
:1037D0003F48404D42F080021A631A6B02F08002AB
:1037E0000092009A01941A6B42F004021A631A6B59
:1037F00002F004020192019A02941A6B42F0010253
:103800001A631A6B02F001020292029A03941A6B75
:1038100042F002021A631B6B03F0020303930DA92B
:10382000039B02230D930F93FCF75CFF2A4BB460BC
:103830004FF4E1380C27304686E80801F460346123
:103840007761B461F461FDF733FF244BAC60284627
:1038500085E80801EC602C616F61AC61EC61FDF7FB
:1038600027FF1F4B1F481E601F4B1D6000F08AFB87
:10387000FEF7CCF81D4800F085FB2422214604A861
:1038800000F0EFFA1A4B04934FF40075182304AAC2
:10389000214618480A930995FEF7F4F8164B24229E
:1038A000186021460DA800F0DCFA144B0D930DAA08
:1038B00019232146124813931295FEF7E3F8114B92
:1038C0001860FEF7BFF8FEE700380240B060002045
:1038D000000802407C5C002000440040004800409A
:1038E000185F0020C9500008B05B0020D0500008CD
:1038F000E850000819350008AC5B0020F4500008BF
:10390000653600084C5E002010B40368124CC28C6F
:10391000818CA34292B20ED131B9104B10491A7862
:103920005DF8044BFDF746BF8A4212D28AB10C4BB8
:10393000891A1944F4E70B4CA3420AD119B90A4B6E
:103940000A491A78ECE78A4203D212B1891A074B66
:10395000EFE75DF8044B704700440040545B0020E3
:10396000205F002000480040555B0020E85F0020F9
:103970000368304A93422DE9F34104462DD1C68DA8
:10398000838DB6B253B92C4800F074FA2B4901224A
:103990002046FDF72EFF02B0BDE8F0819E42F5D231
:1039A0000025264FDFF8A88001959E1BB5420BDB52
:1039B000019B002BEAD0224B4FF080521A60BFF3DC
:1039C0004F8FBFF36F8FE1E77919002301AAD8F871
:1039D0000000FEF7A5FD0135E8E71A4A9342DAD167
:1039E000C68D838DB6B22BB9174800F043FA012279
:1039F0001649CDE79E42FAD20025144FDFF85480D5
:103A000001959E1BB5420BDB019B002BEFD00C4BAD
:103A10004FF080521A60BFF34F8FBFF36F8FE6E70E
:103A20007919002301AAD8F80000FEF779FD0135C5
:103A3000E8E700BF00440040BE4F0008B45B002030
:103A400004ED00E000480040E14F0008505E002017
:103A5000A85B00201C5F002038B5144A036893421D
:103A60000CD1C48C858C1248A4B200F08BFA2A4683
:103A700021461048BDE8384000F0FCB90E4A934298
:103A800012D1C48D858D0D48A4B200F07BFA2A4670
:103A900021460B4800F0EEF90A4B0B491868012249
:103AA000BDE83840FDF7A5BE38BD00BF004400406A
:103AB0003E4F00085E4F0008004800407E4F00085F
:103AC0009E4F0008B05B0020505E00200268034B50
:103AD0009A4201D1FCF76EBD704700BF0020004044
:103AE0007047000007B50F4B00220092596C41F45B
:103AF00080415964596C01F4804100910099019210
:103B0000196C41F0805119641B6C03F080530193D0
:103B10000F216FF00100019BFCF77CFD03B05DF805
:103B200004FB00BF0038024010B514228AB00446DE
:103B300000210DEB020000F094F923682F4A934214
:103B40002DD12F4B2F48002401941A6C42F40032DF
:103B50001A641A6C02F400320192019A02941A6BF0
:103B600042F001021A631B6B03F001030293029BF4
:103B70000C23059302230693012307930323089341
:103B800005A907230993FCF7ADFD26202246052150
:103B9000FCF740FD2620FCF77FFD0AB010BD1A4A55
:103BA0009342FAD1164B1948002403941A6C42F43C
:103BB00080221A641A6C02F480220392039A0494FD
:103BC0001A6B42F002021A631B6B03F002030493A8
:103BD000049B4FF44063059302230693012307934C
:103BE0000323089305A907230993FCF77BFD2720EE
:103BF00022460521FCF70EFD2720CCE700440040BB
:103C0000003802400000024000480040000402402A
:103C100030B5014689B000222D20FCF7FBFC2D2099
:103C2000FCF73AFD0025154B02951A6C144C42F432
:103C300080721A641B6C03F48073029301A903A8B9
:103C4000029BFDF7E1F9FDF7BFF90E4B236040F24F
:103C5000E733E36040000C4BB0FBF3F001386060E9
:103C600020462561A560FDF74DFB20B92046FDF7F4
:103C7000EBF909B030BD0120FBE700BF003802407E
:103C8000F06000200020004040420F007047FEE737
:103C9000FEE7FEE7FEE770470148FDF70FBE00BFF5
:103CA000B06000200148FDF709BE00BF7C5C002029
:103CB0000148FDF71FBA00BFF060002070B50E4646
:103CC00015460C46A31B9D4201DC284670BDAFF390
:103CD000008004F8010BF5E710B500234FF06044B5
:103CE000934201DB104610BDD4F8800EC00703D507
:103CF000D4F8000EC00702D40133F1E700BF2068FA
:103D00000028FBD0C85C2070F6E7000008B50A4B1D
:103D10001968024609B909491960186869460244D8
:103D20008A4206D900F068F80C2303604FF0FF3098
:103D300008BD1A6008BD00BF585B00203461002038
:103D40004FF0FF3070474FF400534B600020704736
:103D500001207047002070470F49D1F8883043F4A4
:103D60007003C1F888300D4B1A68002042F0010240
:103D70001A6098601A6822F0847222F480321A6005
:103D8000074A5A601A6822F480221A60D8604FF0FD
:103D900000638B60704700BF00ED00E00038024018
:103DA00010300024DFF834D0002103E00C4B5B58C6
:103DB000435004310B480C4B42189A42F6D30B4A3D
:103DC00002E0002342F8043B094B9A42F9D3FFF783
:103DD000C3FF00F017F8FFF7EBFC7047000002206C
:103DE000C051000800000020740000207400002072
:103DF00034610020FEE70000014B1868704700BFE7
:103E00001000002070B50D4E0D4CA41BA410002511
:103E1000A54209D10B4E0C4C00F0D2FFA41BA410FC
:103E20000025A54205D170BD56F8253098470135CB
:103E3000EEE756F8253098470135F2E7B85100080B
:103E4000B8510008B8510008BC51000810B5431E15
:103E50000A44914200D110BD11F8014B03F8014F03
:103E6000F7E702440346934200D1704703F8011B71
:103E7000F9E700000FB40A4B13B51C6824B1A3691D
:103E800013B9204600F038FA05AB049AA1680193F3
:103E9000204600F0F5FB02B0BDE8104004B07047CA
:103EA0001000002038B5084B1C68054624B1A369F2
:103EB00013B9204600F020FAA26829462046BDE842
:103EC000384000F089BE00BF1000002070B50E46DB
:103ED000054618B183690BB900F00EFAAB69AC68FE
:103EE00013B9284600F008FA234B9C4217D16C689E
:103EF000A3891B071DD52369DBB1013EA36816F812
:103F0000011F013BA360E9B9002B2EDA22460A21EA
:103F1000284600F03FF8013011D00A2070BD174B41
:103F20009C4201D1AC68E3E7154B9C4208BFEC68AA
:103F3000DEE72146284600F07FF80028DDD04FF06C
:103F4000FF3070BD002B04DAA269934206DB0A2918
:103F500004D023685A1C22601970CFE722462846F5
:103F600000F018F80130C9D1E9E723680A205A1C8B
:103F70002260187070BD00BF3C5100085C51000801
:103F80001C510008024B01461868FFF79FBF00BF95
:103F900010000020F8B50E461446054618B1836996
:103FA0000BB900F0A9F9214B9C422AD16C68A36996
:103FB000A360A3891A072ED5236963B323692068F8
:103FC000C01A6369F6B29842374604DB2146284698
:103FD00000F028F928BBA368013BA36023685A1CA2
:103FE00022601E7063690130984204D0A389DB0708
:103FF00019D50A2E17D12146284600F013F990B1A1
:104000000FE00B4B9C4201D1AC68D0E7094B9C42BE
:1040100008BFEC68CBE72146284600F00DF80028E1
:10402000CCD04FF0FF373846F8BD00BF3C510008F8
:104030005C5100081C510008324B70B51D680646E3
:104040000C4625B1AB6913B9284600F055F92E4B43
:104050009C420FD16C68B4F90C309AB215072CD47D
:10406000D00611D40922326043F04003A3814FF0FF
:10407000FF3070BD254B9C4201D1AC68EBE7244B6F
:104080009C4208BFEC68E6E7510712D5616B41B16D
:1040900004F14403994202D0304600F01BFA002399
:1040A0006363A38923F02403A3810023636023694E
:1040B0002360A38943F00803A38123694BB9A38933
:1040C00003F42073B3F5007F03D02146304600F09F
:1040D000C1F9A28912F001030CD00023A360636927
:1040E0005B42A361236953B9B4F90C3013F080002B
:1040F000BAD170BD920758BF6369A360F2E7002090
:10410000F7E700BF100000203C5100085C51000898
:104110001C5100088A892DE9F041054610070C461C
:104120005AD44B68002B05DC0B6C002B02DC002002
:10413000BDE8F081E66A002EF9D0002312F4805227
:104140002F682B6033D0606DA3895A0705D563684B
:10415000C01A636B0BB1236CC01A00230246E66AD7
:10416000216A2846B047431CA38906D129681D2926
:104170004BD82B4ACA40D60747D500226260D904E3
:104180002269226004D5421C01D12B6803B9606505
:10419000616B2F600029CAD004F14403994202D018
:1041A000284600F097F900206063BDE8F081216A9D
:1041B00001232846B047411CC6D12B68002BC3D031
:1041C0001D2B01D0162B01D12F60B0E7A38943F03E
:1041D0004003A381BDE8F0810F69002FA7D09307AA
:1041E0000E6808BF4B690F6018BF0023A6EB0708D5
:1041F0008B60B8F1000F9ADD43463A46216AA66A01
:104200002846B047002807DCA38943F04003A38178
:104210004FF0FF30BDE8F0810744A8EB0008E8E765
:104220000100402038B50B6905460C46DBB118B1DA
:1042300083690BB900F060F80C4B9C4209D16C68A3
:10424000B4F90C307BB121462846BDE83840FFF771
:1042500061BF074B9C4201D1AC68F1E7054B9C4222
:1042600008BFEC68ECE7002038BD00BF3C510008F7
:104270005C5100081C510008014900F0A9B800BFBA
:1042800025420008002310B50446036043608360A4
:1042900081814366C28103614361836119460822BB
:1042A0005C30FFF7DEFD054B6362054BA362054BF7
:1042B000E362054B2462236310BD00BF654C000818
:1042C000874C0008BF4C0008E34C000870B54A1E3C
:1042D000682555430E4605F1740100F049F904467E
:1042E00040B1002180E842000C30A06005F1680276
:1042F000FFF7B7FD204670BD836910B5044633BB98
:104300008364C3640365124B124A1B68826298423D
:1043100004BF0123836100F01FF86060204600F0B5
:104320001BF8A060204600F017F80022E06004218E
:104330006068FFF7A7FF01220921A068FFF7A2FF2D
:1043400002221221E068FFF79DFF0123A36110BD47
:104350001851000879420008F8B51C4B1E68B36973
:10436000074613B93046FFF7C7FF4836B46873688D
:10437000013B03D5336833B13668F7E7B4F90C5025
:104380006DB16834F4E704213846FFF79FFF3060D1
:104390000028F1D10C233B6004462046F8BD4FF6BF
:1043A000FF73E3810123A38165662560A5606560D5
:1043B00025616561A5610822294604F15C00FFF7CB
:1043C00050FD6563A563A564E564E6E71851000840
:1043D0002DE9F8438046894600F14804002614B9C7
:1043E0003046BDE8F883A5686768013F01D52468B9
:1043F000F5E7AB89012B07D9B5F90E30013303D0AE
:1044000029464046C84706436835EEE770B50E4674
:10441000B1F90E10002990B014461D4607DA0023AA
:104420002B60B3891A0610D44FF480630EE001AA02
:1044300000F07EFC0028F2DB029A02F47042A2F542
:1044400000535A425A412A60EEE74023002023607D
:1044500010B070BD8B8973B59D0706460C4607D515
:1044600004F14703236023610123636102B070BD3F
:1044700001AB6A46FFF7CAFF00990546304600F0D7
:1044800077F848B9B4F90C309A05EFD423F0030358
:1044900043F00203A381E3E70D4BB362A3892060DD
:1044A00043F08003A381009B6361019B20615BB1AA
:1044B000B4F90E10304600F04DFC28B1A38923F06A
:1044C000030343F00103A381A3891D43A581CDE725
:1044D0007942000838B50546002945D051F8043C1A
:1044E0000C1F002BB8BFE41800F056FC1F4A1368DD
:1044F000104633B9636014602846BDE8384000F0C8
:104500004CBCA3420CD921686218934204BF1A68BC
:104510005B68636004BF521822600460ECE71346D6
:104520005A680AB1A242FAD919685818A0420BD1A8
:1045300020680144581882421960DDD11068526821
:104540005A6001441960D7E702D90C232B60D3E7E6
:10455000206821188A4204BF11685268626004BF53
:10456000091821605C60C7E738BD00BF5C5B0020B4
:1045700070B5CD1C25F0030508350C2D38BF0C2572
:10458000002D064601DBA94203D90C23336000202D
:1045900070BD00F001FC234A1468214691B9224CF9
:1045A00023681BB9304600F04DFB20602946304699
:1045B00000F048FB431C26D10C233360304600F04A
:1045C000ECFBE4E70B685B1B1AD40B2B0FD90B60D9
:1045D000CD50CC18304600F0E0FB04F10B00231D59
:1045E00020F00700C31A1BD05A42E25070BD8C4223
:1045F0000DBF63684B686360136018BF0C46E9E742
:104600000C464968CAE7C41C24F00304A04205D044
:10461000211A304600F016FB0130CDD02560D9E7D5
:1046200070BD00BF5C5B0020605B00209368013BB5
:10463000002B10B4936009DA9469A34202DBCBB279
:104640000A2B03D15DF8044BFFF7A4BC1368581C78
:1046500010601970C8B25DF8044B7047F8B5064693
:104660000F461446D518AC4201D1002007E03A4667
:1046700014F8011B3046FFF7D9FF431CF3D1F8BDF6
:104680002DE9F04F9DB00C4617460393064618B12E
:1046900083690BB9FFF730FE7C4B9C4257D174689D
:1046A000A38918075DD52369002B5AD000230993ED
:1046B00020238DF8293030238DF82A304FF0010B5C
:1046C000B846454615F8013B002B55D1B8EB070A13
:1046D0000BD053463A4621463046FFF7BFFF013024
:1046E00000F0C480099B5344099398F80030002BD4
:1046F00000F0BC8000234FF0FF3204930793059233
:1047000006938DF853301A93052229786048FBF7F9
:104710005FFD05F10108049B002831D1D90644BF93
:1047200020228DF853201A0744BF2B228DF85320E6
:104730002A782A2A2CD0079A00210A20A846013577
:1047400098F80030303B092B6DD971B326E0514BFE
:104750009C4201D1B468A3E74F4B9C4208BFF46868
:104760009EE721463046FFF767FC00289ED04FF0B9
:10477000FF301DB0BDE8F08F252BA7D0A846A0E7DD
:10478000434A801A0BFA00F0184304904546BBE7F1
:10479000039A111D12680391002A01DB079204E0BD
:1047A000524243F002030792049398F800302E2BF4
:1047B00010D198F801302A2B08F1010137D1039B61
:1047C0001A1D1B680392002BB8BF4FF0FF3308F18E
:1047D00002080593314D98F8001003222846FBF794
:1047E000F7FC40B14023401B03FA00F0049B034355
:1047F000049308F1010898F8001029488DF8281052
:10480000062208F10107FBF7E3FC002834D0254B12
:1048100003BB039B073323F0070308330393099B70
:104820004B4409934CE700FB0232012186E7002349
:10483000059318460A258846013198F80020303A39
:10484000092A03D9002BC5D00590C3E705FB00203A
:104850000123F0E703AB00932246134B04A9304633
:10486000AFF30080B0F1FF3F8146D8D1A3895B064A
:104870003FF57DAF09987CE703AB009322460A4BD6
:1048800004A9304600F088F8ECE700BF3C5100086E
:104890007C5100085C5100081C510008825100083E
:1048A00086510008000000005D4600082DE9F04731
:1048B00091461F468A680B69DDF820809342B8BF95
:1048C0001346C9F8003091F8432006460C4612B151
:1048D0000133C9F800302368990642BFD9F8003087
:1048E0000233C9F80030256815F0060507D104F138
:1048F000190AE368D9F800209B1A9D4229DB94F835
:1049000043302268003318BF012392062ED404F1ED
:10491000430239463046C047013021D02368E5685C
:10492000D9F8002003F00603042B08BFAD1AA368D2
:1049300022690CBF25EAE57500259342C4BF9B1A86
:10494000ED184FF000091A344D451BD10020BDE889
:10495000F0870123524639463046C047013003D123
:104960004FF0FF30BDE8F0870135C2E7E1185A1C6F
:10497000302081F84300224494F8451082F8431017
:104980000233C4E70123224639463046C04701308E
:10499000E6D009F10109D7E72DE9F04317460A7E71
:1049A00085B06E2A984606460C460C9B01F1430ED4
:1049B00000F0BC801AD8632A2ED00AD8002A00F052
:1049C000C880582A00F08A8004F1420584F8422009
:1049D0002AE0642A01D0692AF6D121681A6811F008
:1049E000800F23D0111D1960136827E0732A00F08F
:1049F000B48008D86F2A2AD0702AE5D10A6842F01C
:104A000020020A6003E0752A21D0782ADCD17822BE
:104A100084F845206E4964E01A6801F14205111DD1
:104A20001960136884F842300123A3E011F0400FAD
:104A300002F104011960D7D0B2F90030002B03DA7B
:104A40002D225B4284F8432062490A2217E0206845
:104A5000196810F0800F03D0081D18600B6806E07D
:104A600010F0400F01F104001860F7D00B8859498D
:104A70006F2A14BF0A220822002084F843006568C8
:104A8000A560002DC0F29C80206820F0040020600A
:104A9000002B3FD1002D40F095807546082A0BD1A0
:104AA0002368DA0708D5236962689A42DEBF30239B
:104AB00005F8013C05F1FF35AEEB05032361CDF8A8
:104AC00000803B4603AA21463046FFF7EFFE013047
:104AD00055D14FF0FF3005B0BDE8F08381F8452097
:104AE0003C492268186812F0800F00F104051D602F
:104AF00001D0036802E05506FBD50388D00744BF08
:104B000042F0200222601BB9226822F020022260BB
:104B10001022B1E77546B3FBF2F002FB1033CB5C19
:104B200005F8013D03460028F5D1B7E708681A6883
:104B3000496910F0800F04D0101D186013681960C7
:104B400007E010F0400F02F1040018601368F6D07F
:104B50001980002323617546B1E71A68111D196099
:104B60001568626800212846FBF732FB08B1401B3C
:104B7000606063682361002384F843309FE7236902
:104B80002A4639463046C0470130A2D023689B07E9
:104B900007D5002504F11909E368039A9B1A9D4281
:104BA00005DBE068039B9842B8BF184693E70123F2
:104BB0004A4639463046C04701308AD00135EBE7D6
:104BC000002BA7D10B7884F8423004F1420565E749
:104BD0009E5100088D51000870B50D4614460646DA
:104BE00018B183690BB9FFF787FB134B9C4212D1B5
:104BF0007468A368013B002BA36016DAA269934294
:104C000002DBEBB20A2B10D1224629463046BDE822
:104C10007040FFF7BFB9094B9C4201D1B468E8E787
:104C2000074B9C4208BFF468E3E723685A1C2260E4
:104C30001D70E8B270BD00BF3C5100085C51000817
:104C40001C51000838B5064C002305460846236071
:104C5000FFF75CF8431C02D1236803B12B6038BD19
:104C60003061002010B50C46B1F90E1000F096F836
:104C70000028ABBF636DA3891B1823F48053ACBF1E
:104C80006365A38110BD2DE9F0411F468B89DB05CB
:104C900005460C46164605D502230022B1F90E1032
:104CA00000F068F8A389B4F90E1023F48053A381AF
:104CB00032463B462846BDE8F04100F017B810B533
:104CC0000C46B1F90E1000F055F8431CA38915BF2E
:104CD000606523F4805343F48053A38118BFA381FC
:104CE00010BDB1F90E1000F013B8000038B5074C34
:104CF000054608461146002222601A46FEF7ECFFE0
:104D0000431C02D1236803B12B6038BD3061002001
:104D100038B5064C0023054608462360FFF710F817
:104D2000431C02D1236803B12B6038BD30610020E1
:104D300038B5074C00230546084611462360FFF7A7
:104D400002F8431C02D1236803B12B6038BD00BFB9
:104D50003061002038B5064C002305460846236024
:104D6000FEF7F6FF431C02D1236803B12B6038BD68
:104D70003061002038B5074C054608461146002230
:104D800022601A46FEF7E6FF431C02D1236803B1F6
:104D90002B6038BD306100207047704738B5074C34
:104DA000054608461146002222601A46FEF786FF95
:104DB000431C02D1236803B12B6038BD3061002051
:104DC000F8B500BFF8BC08BC9E467047F8B500BFF8
:084DD000F8BC08BC9E467047C8
:104DD8002E2E5C447269766572735C53544D33327F
:104DE800463478785F48414C5F4472697665725CF6
:104DF8005372635C73746D3332663478785F6861BC
:104E08006C5F636F727465782E63002E2E5C44723B
:104E180069766572735C53544D3332463478785FE3
:104E280048414C5F4472697665725C5372635C7387
:104E3800746D3332663478785F68616C5F67706967
:104E48006F2E63002E2E5C447269766572735C5314
:104E5800544D3332463478785F48414C5F44726928
:104E68007665725C5372635C73746D333266347842
:104E7800785F68616C5F7263632E63002E2E5C44FA
:104E88007269766572735C53544D33324634787860
:104E98005F48414C5F4472697665725C5372635C2B
:104EA80073746D3332663478785F68616C5F7469E7
:104EB8006D2E63002E2E5C447269766572735C53A6
:104EC800544D3332463478785F48414C5F447269B8
:104ED8007665725C5372635C73746D3332663478D2
:104EE800785F68616C5F756172742E630049444C29
:104EF8004500546D725100546D7220537663002042
:104F0800213D202065727251554555455F454D50EC
:104F18005459004D6173746572202D3E00252E3260
:104F28005820004D6173746572203E2048414C5FE3
:104F38004552524F52003E2048414C5F5541525411
:104F48005F4572726F7243616C6C6261636B20556E
:104F58005341525432003E20547858666572436F6C
:104F6800756E743D25642054785866657253697A65
:104F7800653D25640A003C2048414C5F5541525428
:104F88005F4572726F7243616C6C6261636B20552E
:104F98005341525433003C20527858666572436F2F
:104FA800756E743D25642052785866657253697A27
:104FB800653D25640A0048414C5F554152545F5293
:104FC8007843706C7443616C6C6261636B204D61F3
:104FD800737465723F3F3F3F0048414C5F554152F3
:104FE800545F527843706C7443616C6C6261636B9C
:104FF80020536C6176653F3F3F3F00537461727484
:1050080044656661756C745461736B004D617374AB
:105018006572203C2048414C5F4552524F52000A6D
:10502800202D2D2D2D202564202D2D2D2D2D0A00F0
:105038004D61737465722073656E6420627974655E
:1050480073004D61737465722028256429203C2DF6
:10505800200025302E32582000727851756575650C
:10506800536C61766520517565756520776173208D
:105078006E6F74206372656174656420616E64206C
:105088006D757374206E6F74206265207573656426
:105098002E0053746172745461736B303220536CF8
:1050A80061766500536C6176652048414C5F4552D6
:1050B800524F5200536C617665202564202D3E20A6
:1050C80000207374617274007853656D6170686F45
:1050D800726543726561746542696E617279200018
:1050E80064656661756C745461736B006D795461A5
:1050F800736B303200000000000000000001020362
:10510800040607080900000000010203040000006B
:105118001400002000000000000000000000000053
:105128000000000000000000000000000000000077
:105138000000000000000000000000000000000067
:105148000000000000000000000000000000000057
:105158000000000000000000000000000000000047
:105168000000000000000000000000000000000037
:1051780000000000232D302B2000686C4C00656671
:105188006745464700303132333435363738394190
:1051980042434445460030313233343536373839A6
:0851A8006162636465660000AA
:0851B000F0B0FF7F01000000D8
:0451B800B501000835
:0451BC009101000855
:1051C00001000000AAAAAAAA010000000024F4001D
:1051D00014000020000000003C5100085C51000851
:1051E0001C5100080000000000000000000000004A
:1051F00000000000000000000000000000000000AF
:10520000000000000000000000000000000000009E
:10521000000000000000000000000000000000008E
:10522000000000000000000000000000000000007E
:04523000000000007A
:0400000508003DA50D
:00000001FF
